{
  "address": "0x47AE1c9D8d5Ce96BC36C287adE463aA56e3ABEA0",
  "abi": [
    {
      "inputs": [
        {
          "internalType": "contract ANS",
          "name": "ansAddr",
          "type": "address"
        }
      ],
      "stateMutability": "nonpayable",
      "type": "constructor"
    },
    {
      "inputs": [],
      "name": "ans",
      "outputs": [
        {
          "internalType": "contract ANS",
          "name": "",
          "type": "address"
        }
      ],
      "stateMutability": "view",
      "type": "function"
    },
    {
      "inputs": [
        {
          "internalType": "bytes32",
          "name": "",
          "type": "bytes32"
        }
      ],
      "name": "name",
      "outputs": [
        {
          "internalType": "string",
          "name": "",
          "type": "string"
        }
      ],
      "stateMutability": "view",
      "type": "function"
    },
    {
      "inputs": [
        {
          "internalType": "bytes32",
          "name": "node",
          "type": "bytes32"
        },
        {
          "internalType": "string",
          "name": "_name",
          "type": "string"
        }
      ],
      "name": "setName",
      "outputs": [],
      "stateMutability": "nonpayable",
      "type": "function"
    }
  ],
  "transactionHash": "0xebe4978a2cd2511963f5779958b65c11abbaa16d4342b04836dc1ca9bb83aaf4",
  "args": [
    "0x9119903Fd6eF23Dcc65eE2A10aad94bF9d93bCdc"
  ],
  "solcInputHash": "b967ab4897ed3a8ef524aedad8e9d002",
  "bytecode": "0x608060405234801561001057600080fd5b5060405161071838038061071883398101604081905261002f9161016b565b600080546001600160a01b0319166001600160a01b03831690811782556040516302571be360e01b81527f91d1777781884d03a6757a803996e38de2a42967fb37eeaca72729271025a9e260048201526302571be39060240160206040518083038186803b1580156100a057600080fd5b505afa1580156100b4573d6000803e3d6000fd5b505050506040513d601f19601f820116820180604052508101906100d8919061016b565b90506001600160a01b0381161561016457604051630f41a04d60e11b81523360048201526001600160a01b03821690631e83409a90602401602060405180830381600087803b15801561012a57600080fd5b505af115801561013e573d6000803e3d6000fd5b505050506040513d601f19601f82011682018060405250810190610162919061018e565b505b50506101be565b60006020828403121561017c578081fd5b8151610187816101a6565b9392505050565b60006020828403121561019f578081fd5b5051919050565b6001600160a01b03811681146101bb57600080fd5b50565b61054b806101cd6000396000f3fe608060405234801561001057600080fd5b50600436106100415760003560e01c8063691f343114610046578063773722131461006f578063a71ddb5314610084575b600080fd5b610059610054366004610335565b6100c9565b6040516100669190610421565b60405180910390f35b61008261007d36600461034d565b610163565b005b6000546100a49073ffffffffffffffffffffffffffffffffffffffff1681565b60405173ffffffffffffffffffffffffffffffffffffffff9091168152602001610066565b600160205260009081526040902080546100e290610492565b80601f016020809104026020016040519081016040528092919081815260200182805461010e90610492565b801561015b5780601f106101305761010080835404028352916020019161015b565b820191906000526020600020905b81548152906001019060200180831161013e57829003601f168201915b505050505081565b6000546040517f02571be300000000000000000000000000000000000000000000000000000000815260048101849052839173ffffffffffffffffffffffffffffffffffffffff16906302571be39060240160206040518083038186803b1580156101cd57600080fd5b505afa1580156101e1573d6000803e3d6000fd5b505050506040513d601f19601f8201168201806040525081019061020591906102fa565b73ffffffffffffffffffffffffffffffffffffffff163373ffffffffffffffffffffffffffffffffffffffff161461023c57600080fd5b6000838152600160209081526040909120835161025b92850190610261565b50505050565b82805461026d90610492565b90600052602060002090601f01602090048101928261028f57600085556102d5565b82601f106102a857805160ff19168380011785556102d5565b828001600101855582156102d5579182015b828111156102d55782518255916020019190600101906102ba565b506102e19291506102e5565b5090565b5b808211156102e157600081556001016102e6565b60006020828403121561030b578081fd5b815173ffffffffffffffffffffffffffffffffffffffff8116811461032e578182fd5b9392505050565b600060208284031215610346578081fd5b5035919050565b6000806040838503121561035f578081fd5b82359150602083013567ffffffffffffffff8082111561037d578283fd5b818501915085601f830112610390578283fd5b8135818111156103a2576103a26104e6565b604051601f82017fffffffffffffffffffffffffffffffffffffffffffffffffffffffffffffffe0908116603f011681019083821181831017156103e8576103e86104e6565b81604052828152886020848701011115610400578586fd5b82602086016020830137856020848301015280955050505050509250929050565b6000602080835283518082850152825b8181101561044d57858101830151858201604001528201610431565b8181111561045e5783604083870101525b50601f017fffffffffffffffffffffffffffffffffffffffffffffffffffffffffffffffe016929092016040019392505050565b600181811c908216806104a657607f821691505b602082108114156104e0577f4e487b7100000000000000000000000000000000000000000000000000000000600052602260045260246000fd5b50919050565b7f4e487b7100000000000000000000000000000000000000000000000000000000600052604160045260246000fdfea26469706673582212200bf84c68c0d6383a92548423bfc8dd0c4108d766a43ca342d9347344770b8a1964736f6c63430008040033",
  "devdoc": {
    "details": "Provides a default implementation of a resolver for reverse records, which permits only the owner to update it.",
    "kind": "dev",
    "methods": {
      "constructor": {
        "details": "Constructor",
        "params": {
          "ansAddr": "The address of the ANS registry."
        }
      },
      "setName(bytes32,string)": {
        "details": "Sets the name for a node.",
        "params": {
          "_name": "The name to set.",
          "node": "The node to update."
        }
      }
    },
    "version": 1
  },
  "userdoc": {
    "kind": "user",
    "methods": {},
    "version": 1
  },
  "storageLayout": {
    "storage": [
      {
        "astId": 13385,
        "contract": "contracts/resolvers/DefaultReverseResolver.sol:DefaultReverseResolver",
        "label": "ans",
        "offset": 0,
        "slot": "0",
        "type": "t_contract(ANS)12254"
      },
      {
        "astId": 13389,
        "contract": "contracts/resolvers/DefaultReverseResolver.sol:DefaultReverseResolver",
        "label": "name",
        "offset": 0,
        "slot": "1",
        "type": "t_mapping(t_bytes32,t_string_storage)"
      }
    ],
    "types": {
      "t_bytes32": {
        "encoding": "inplace",
        "label": "bytes32",
        "numberOfBytes": "32"
      },
      "t_contract(ANS)12254": {
        "encoding": "inplace",
        "label": "contract ANS",
        "numberOfBytes": "20"
      },
      "t_mapping(t_bytes32,t_string_storage)": {
        "encoding": "mapping",
        "key": "t_bytes32",
        "label": "mapping(bytes32 => string)",
        "numberOfBytes": "32",
        "value": "t_string_storage"
      },
      "t_string_storage": {
        "encoding": "bytes",
        "label": "string",
        "numberOfBytes": "32"
      }
    }
  }
}