{
  "address": "0x86Ea5aF2fA26EBEc3Fc3a8597a60B2B3BC40d52D",
  "abi": [
    {
      "inputs": [
        {
          "internalType": "contract ANS",
          "name": "_ans",
          "type": "address"
        }
      ],
      "stateMutability": "nonpayable",
      "type": "constructor"
    },
    {
      "anonymous": false,
      "inputs": [
        {
          "indexed": true,
          "internalType": "address",
          "name": "controller",
          "type": "address"
        },
        {
          "indexed": false,
          "internalType": "bool",
          "name": "enabled",
          "type": "bool"
        }
      ],
      "name": "ControllerChanged",
      "type": "event"
    },
    {
      "anonymous": false,
      "inputs": [
        {
          "indexed": true,
          "internalType": "address",
          "name": "previousOwner",
          "type": "address"
        },
        {
          "indexed": true,
          "internalType": "address",
          "name": "newOwner",
          "type": "address"
        }
      ],
      "name": "OwnershipTransferred",
      "type": "event"
    },
    {
      "anonymous": false,
      "inputs": [
        {
          "indexed": true,
          "internalType": "bytes32",
          "name": "label",
          "type": "bytes32"
        }
      ],
      "name": "TLDLocked",
      "type": "event"
    },
    {
      "inputs": [],
      "name": "ans",
      "outputs": [
        {
          "internalType": "contract ANS",
          "name": "",
          "type": "address"
        }
      ],
      "stateMutability": "view",
      "type": "function"
    },
    {
      "inputs": [
        {
          "internalType": "address",
          "name": "",
          "type": "address"
        }
      ],
      "name": "controllers",
      "outputs": [
        {
          "internalType": "bool",
          "name": "",
          "type": "bool"
        }
      ],
      "stateMutability": "view",
      "type": "function"
    },
    {
      "inputs": [
        {
          "internalType": "bytes32",
          "name": "label",
          "type": "bytes32"
        }
      ],
      "name": "lock",
      "outputs": [],
      "stateMutability": "nonpayable",
      "type": "function"
    },
    {
      "inputs": [
        {
          "internalType": "bytes32",
          "name": "",
          "type": "bytes32"
        }
      ],
      "name": "locked",
      "outputs": [
        {
          "internalType": "bool",
          "name": "",
          "type": "bool"
        }
      ],
      "stateMutability": "view",
      "type": "function"
    },
    {
      "inputs": [],
      "name": "owner",
      "outputs": [
        {
          "internalType": "address",
          "name": "",
          "type": "address"
        }
      ],
      "stateMutability": "view",
      "type": "function"
    },
    {
      "inputs": [],
      "name": "renounceOwnership",
      "outputs": [],
      "stateMutability": "nonpayable",
      "type": "function"
    },
    {
      "inputs": [
        {
          "internalType": "address",
          "name": "controller",
          "type": "address"
        },
        {
          "internalType": "bool",
          "name": "enabled",
          "type": "bool"
        }
      ],
      "name": "setController",
      "outputs": [],
      "stateMutability": "nonpayable",
      "type": "function"
    },
    {
      "inputs": [
        {
          "internalType": "address",
          "name": "resolver",
          "type": "address"
        }
      ],
      "name": "setResolver",
      "outputs": [],
      "stateMutability": "nonpayable",
      "type": "function"
    },
    {
      "inputs": [
        {
          "internalType": "bytes32",
          "name": "label",
          "type": "bytes32"
        },
        {
          "internalType": "address",
          "name": "owner",
          "type": "address"
        }
      ],
      "name": "setSubnodeOwner",
      "outputs": [],
      "stateMutability": "nonpayable",
      "type": "function"
    },
    {
      "inputs": [
        {
          "internalType": "bytes4",
          "name": "interfaceID",
          "type": "bytes4"
        }
      ],
      "name": "supportsInterface",
      "outputs": [
        {
          "internalType": "bool",
          "name": "",
          "type": "bool"
        }
      ],
      "stateMutability": "pure",
      "type": "function"
    },
    {
      "inputs": [
        {
          "internalType": "address",
          "name": "newOwner",
          "type": "address"
        }
      ],
      "name": "transferOwnership",
      "outputs": [],
      "stateMutability": "nonpayable",
      "type": "function"
    }
  ],
  "transactionHash": "0xd6774a5796fb3c3c70947421cd9b90b5282aaa161ea641622f863e6b74cdc2d5",
  "args": [
    "0x9119903Fd6eF23Dcc65eE2A10aad94bF9d93bCdc"
  ],
  "solcInputHash": "b967ab4897ed3a8ef524aedad8e9d002",
  "bytecode": "0x608060405234801561001057600080fd5b50604051610b2f380380610b2f83398101604081905261002f916100ad565b6100383361005d565b600280546001600160a01b0319166001600160a01b03929092169190911790556100db565b600080546001600160a01b038381166001600160a01b0319831681178455604051919092169283917f8be0079c531659141344cd1fd0a4f28419497f9722a3daafe3b4186f6b6457e09190a35050565b6000602082840312156100be578081fd5b81516001600160a01b03811681146100d4578182fd5b9392505050565b610a45806100ea6000396000f3fe608060405234801561001057600080fd5b50600436106100c95760003560e01c80638da5cb5b11610081578063da8c229e1161005b578063da8c229e146101fd578063e0dba60f14610220578063f2fde38b1461023357600080fd5b80638da5cb5b1461017b578063a71ddb53146101ba578063cbe9e764146101da57600080fd5b80634e543b26116100b25780634e543b261461014d578063715018a6146101605780638cb8ecec1461016857600080fd5b806301670ba9146100ce57806301ffc9a7146100e3575b600080fd5b6100e16100dc366004610974565b610246565b005b6101386100f13660046109cf565b7fffffffff00000000000000000000000000000000000000000000000000000000167f01ffc9a7000000000000000000000000000000000000000000000000000000001490565b60405190151581526020015b60405180910390f35b6100e161015b366004610919565b610330565b6100e1610440565b6100e16101763660046109a4565b6104cd565b60005473ffffffffffffffffffffffffffffffffffffffff165b60405173ffffffffffffffffffffffffffffffffffffffff9091168152602001610144565b6002546101959073ffffffffffffffffffffffffffffffffffffffff1681565b6101386101e8366004610974565b60036020526000908152604090205460ff1681565b61013861020b366004610919565b60016020526000908152604090205460ff1681565b6100e161022e36600461093a565b610640565b6100e1610241366004610919565b61074b565b60005473ffffffffffffffffffffffffffffffffffffffff1633146102cc576040517f08c379a000000000000000000000000000000000000000000000000000000000815260206004820181905260248201527f4f776e61626c653a2063616c6c6572206973206e6f7420746865206f776e657260448201526064015b60405180910390fd5b60405181907f1764176cfa565853ba1ded547a830a9f9bff95231ef6fd228b3ddd617577756990600090a2600090815260036020526040902080547fffffffffffffffffffffffffffffffffffffffffffffffffffffffffffffff00166001179055565b60005473ffffffffffffffffffffffffffffffffffffffff1633146103b1576040517f08c379a000000000000000000000000000000000000000000000000000000000815260206004820181905260248201527f4f776e61626c653a2063616c6c6572206973206e6f7420746865206f776e657260448201526064016102c3565b6002546040517f1896f70a0000000000000000000000000000000000000000000000000000000081526000600482015273ffffffffffffffffffffffffffffffffffffffff838116602483015290911690631896f70a90604401600060405180830381600087803b15801561042557600080fd5b505af1158015610439573d6000803e3d6000fd5b5050505050565b60005473ffffffffffffffffffffffffffffffffffffffff1633146104c1576040517f08c379a000000000000000000000000000000000000000000000000000000000815260206004820181905260248201527f4f776e61626c653a2063616c6c6572206973206e6f7420746865206f776e657260448201526064016102c3565b6104cb600061087b565b565b3360009081526001602052604090205460ff1661056c576040517f08c379a000000000000000000000000000000000000000000000000000000000815260206004820152602860248201527f436f6e74726f6c6c61626c653a2043616c6c6572206973206e6f74206120636f60448201527f6e74726f6c6c657200000000000000000000000000000000000000000000000060648201526084016102c3565b60008281526003602052604090205460ff161561058857600080fd5b6002546040517f06ab5923000000000000000000000000000000000000000000000000000000008152600060048201526024810184905273ffffffffffffffffffffffffffffffffffffffff8381166044830152909116906306ab592390606401602060405180830381600087803b15801561060357600080fd5b505af1158015610617573d6000803e3d6000fd5b505050506040513d601f19601f8201168201806040525081019061063b919061098c565b505050565b60005473ffffffffffffffffffffffffffffffffffffffff1633146106c1576040517f08c379a000000000000000000000000000000000000000000000000000000000815260206004820181905260248201527f4f776e61626c653a2063616c6c6572206973206e6f7420746865206f776e657260448201526064016102c3565b73ffffffffffffffffffffffffffffffffffffffff821660008181526001602090815260409182902080547fffffffffffffffffffffffffffffffffffffffffffffffffffffffffffffff001685151590811790915591519182527f4c97694570a07277810af7e5669ffd5f6a2d6b74b6e9a274b8b870fd5114cf87910160405180910390a25050565b60005473ffffffffffffffffffffffffffffffffffffffff1633146107cc576040517f08c379a000000000000000000000000000000000000000000000000000000000815260206004820181905260248201527f4f776e61626c653a2063616c6c6572206973206e6f7420746865206f776e657260448201526064016102c3565b73ffffffffffffffffffffffffffffffffffffffff811661086f576040517f08c379a000000000000000000000000000000000000000000000000000000000815260206004820152602660248201527f4f776e61626c653a206e6577206f776e657220697320746865207a65726f206160448201527f646472657373000000000000000000000000000000000000000000000000000060648201526084016102c3565b6108788161087b565b50565b6000805473ffffffffffffffffffffffffffffffffffffffff8381167fffffffffffffffffffffffff0000000000000000000000000000000000000000831681178455604051919092169283917f8be0079c531659141344cd1fd0a4f28419497f9722a3daafe3b4186f6b6457e09190a35050565b803573ffffffffffffffffffffffffffffffffffffffff8116811461091457600080fd5b919050565b60006020828403121561092a578081fd5b610933826108f0565b9392505050565b6000806040838503121561094c578081fd5b610955836108f0565b915060208301358015158114610969578182fd5b809150509250929050565b600060208284031215610985578081fd5b5035919050565b60006020828403121561099d578081fd5b5051919050565b600080604083850312156109b6578182fd5b823591506109c6602084016108f0565b90509250929050565b6000602082840312156109e0578081fd5b81357fffffffff0000000000000000000000000000000000000000000000000000000081168114610933578182fdfea26469706673582212201883d74d94b11331352202e6b40a76c588be7912831a84d5e9aaf84f2681c82e64736f6c63430008040033",
  "devdoc": {
    "kind": "dev",
    "methods": {
      "owner()": {
        "details": "Returns the address of the current owner."
      },
      "renounceOwnership()": {
        "details": "Leaves the contract without owner. It will not be possible to call `onlyOwner` functions anymore. Can only be called by the current owner. NOTE: Renouncing ownership will leave the contract without an owner, thereby removing any functionality that is only available to the owner."
      },
      "transferOwnership(address)": {
        "details": "Transfers ownership of the contract to a new account (`newOwner`). Can only be called by the current owner."
      }
    },
    "version": 1
  },
  "userdoc": {
    "kind": "user",
    "methods": {},
    "version": 1
  },
  "storageLayout": {
    "storage": [
      {
        "astId": 545,
        "contract": "contracts/root/Root.sol:Root",
        "label": "_owner",
        "offset": 0,
        "slot": "0",
        "type": "t_address"
      },
      {
        "astId": 15457,
        "contract": "contracts/root/Root.sol:Root",
        "label": "controllers",
        "offset": 0,
        "slot": "1",
        "type": "t_mapping(t_address,t_bool)"
      },
      {
        "astId": 15587,
        "contract": "contracts/root/Root.sol:Root",
        "label": "ans",
        "offset": 0,
        "slot": "2",
        "type": "t_contract(ANS)12254"
      },
      {
        "astId": 15591,
        "contract": "contracts/root/Root.sol:Root",
        "label": "locked",
        "offset": 0,
        "slot": "3",
        "type": "t_mapping(t_bytes32,t_bool)"
      }
    ],
    "types": {
      "t_address": {
        "encoding": "inplace",
        "label": "address",
        "numberOfBytes": "20"
      },
      "t_bool": {
        "encoding": "inplace",
        "label": "bool",
        "numberOfBytes": "1"
      },
      "t_bytes32": {
        "encoding": "inplace",
        "label": "bytes32",
        "numberOfBytes": "32"
      },
      "t_contract(ANS)12254": {
        "encoding": "inplace",
        "label": "contract ANS",
        "numberOfBytes": "20"
      },
      "t_mapping(t_address,t_bool)": {
        "encoding": "mapping",
        "key": "t_address",
        "label": "mapping(address => bool)",
        "numberOfBytes": "32",
        "value": "t_bool"
      },
      "t_mapping(t_bytes32,t_bool)": {
        "encoding": "mapping",
        "key": "t_bytes32",
        "label": "mapping(bytes32 => bool)",
        "numberOfBytes": "32",
        "value": "t_bool"
      }
    }
  }
}